{
  "_format": "hh-sol-artifact-1",
  "contractName": "Staking",
  "sourceName": "contracts/Staking.sol",
  "abi": [
    {
      "inputs": [
        {
          "internalType": "address",
          "name": "_tokenAddress",
          "type": "address"
        }
      ],
      "stateMutability": "nonpayable",
      "type": "constructor"
    },
    {
      "anonymous": false,
      "inputs": [
        {
          "indexed": false,
          "internalType": "address",
          "name": "owner",
          "type": "address"
        },
        {
          "indexed": false,
          "internalType": "uint256",
          "name": "amount",
          "type": "uint256"
        },
        {
          "indexed": false,
          "internalType": "uint256",
          "name": "date",
          "type": "uint256"
        }
      ],
      "name": "eStakingCreated",
      "type": "event"
    },
    {
      "anonymous": false,
      "inputs": [
        {
          "indexed": false,
          "internalType": "address",
          "name": "owner",
          "type": "address"
        },
        {
          "indexed": false,
          "internalType": "uint256",
          "name": "amount",
          "type": "uint256"
        },
        {
          "indexed": false,
          "internalType": "uint256",
          "name": "reward",
          "type": "uint256"
        }
      ],
      "name": "eStakingReward",
      "type": "event"
    },
    {
      "inputs": [
        {
          "internalType": "address",
          "name": "",
          "type": "address"
        }
      ],
      "name": "StakingItems",
      "outputs": [
        {
          "internalType": "uint256",
          "name": "amount",
          "type": "uint256"
        },
        {
          "internalType": "uint256",
          "name": "date",
          "type": "uint256"
        }
      ],
      "stateMutability": "view",
      "type": "function"
    },
    {
      "inputs": [
        {
          "internalType": "uint256",
          "name": "",
          "type": "uint256"
        }
      ],
      "name": "StakingRewards",
      "outputs": [
        {
          "internalType": "uint256",
          "name": "stakingdays",
          "type": "uint256"
        },
        {
          "internalType": "uint256",
          "name": "percentage",
          "type": "uint256"
        }
      ],
      "stateMutability": "view",
      "type": "function"
    },
    {
      "inputs": [
        {
          "internalType": "uint256",
          "name": "stakingdays",
          "type": "uint256"
        },
        {
          "internalType": "uint256",
          "name": "percentage",
          "type": "uint256"
        }
      ],
      "name": "addStakingRewards",
      "outputs": [],
      "stateMutability": "nonpayable",
      "type": "function"
    },
    {
      "inputs": [],
      "name": "admin",
      "outputs": [
        {
          "internalType": "address",
          "name": "",
          "type": "address"
        }
      ],
      "stateMutability": "view",
      "type": "function"
    },
    {
      "inputs": [],
      "name": "calculateReward",
      "outputs": [
        {
          "internalType": "uint256",
          "name": "",
          "type": "uint256"
        }
      ],
      "stateMutability": "view",
      "type": "function"
    },
    {
      "inputs": [
        {
          "internalType": "uint256",
          "name": "amount",
          "type": "uint256"
        }
      ],
      "name": "createStaking",
      "outputs": [],
      "stateMutability": "nonpayable",
      "type": "function"
    },
    {
      "inputs": [],
      "name": "getBlockTimestamp",
      "outputs": [
        {
          "internalType": "uint256",
          "name": "",
          "type": "uint256"
        }
      ],
      "stateMutability": "view",
      "type": "function"
    },
    {
      "inputs": [],
      "name": "getStakingByUser",
      "outputs": [
        {
          "components": [
            {
              "internalType": "uint256",
              "name": "amount",
              "type": "uint256"
            },
            {
              "internalType": "uint256",
              "name": "date",
              "type": "uint256"
            }
          ],
          "internalType": "struct Staking.StakingItem",
          "name": "",
          "type": "tuple"
        }
      ],
      "stateMutability": "view",
      "type": "function"
    },
    {
      "inputs": [
        {
          "internalType": "uint256",
          "name": "id",
          "type": "uint256"
        }
      ],
      "name": "getStakingRewards",
      "outputs": [
        {
          "components": [
            {
              "internalType": "uint256",
              "name": "stakingdays",
              "type": "uint256"
            },
            {
              "internalType": "uint256",
              "name": "percentage",
              "type": "uint256"
            }
          ],
          "internalType": "struct Staking.StakingReward",
          "name": "",
          "type": "tuple"
        }
      ],
      "stateMutability": "view",
      "type": "function"
    },
    {
      "inputs": [
        {
          "internalType": "uint256",
          "name": "reward",
          "type": "uint256"
        },
        {
          "internalType": "address",
          "name": "tokenowner",
          "type": "address"
        }
      ],
      "name": "rewardsStaking",
      "outputs": [],
      "stateMutability": "nonpayable",
      "type": "function"
    },
    {
      "inputs": [],
      "name": "stakingBalanceOf",
      "outputs": [
        {
          "internalType": "uint256",
          "name": "",
          "type": "uint256"
        }
      ],
      "stateMutability": "view",
      "type": "function"
    },
    {
      "inputs": [
        {
          "internalType": "address",
          "name": "tokenowner",
          "type": "address"
        },
        {
          "internalType": "uint256",
          "name": "amount",
          "type": "uint256"
        },
        {
          "internalType": "uint256",
          "name": "timestamp",
          "type": "uint256"
        }
      ],
      "name": "testCreateStaking",
      "outputs": [],
      "stateMutability": "nonpayable",
      "type": "function"
    },
    {
      "inputs": [],
      "name": "tokenAddress",
      "outputs": [
        {
          "internalType": "address",
          "name": "",
          "type": "address"
        }
      ],
      "stateMutability": "view",
      "type": "function"
    },
    {
      "inputs": [],
      "name": "tokenBalanceOf",
      "outputs": [
        {
          "internalType": "uint256",
          "name": "",
          "type": "uint256"
        }
      ],
      "stateMutability": "view",
      "type": "function"
    },
    {
      "inputs": [],
      "name": "totalSupply",
      "outputs": [
        {
          "internalType": "uint256",
          "name": "",
          "type": "uint256"
        }
      ],
      "stateMutability": "view",
      "type": "function"
    }
  ],
  "bytecode": "0x60806040523480156200001157600080fd5b506040516200247c3803806200247c833981810160405281019062000037919062000227565b336000806101000a81548173ffffffffffffffffffffffffffffffffffffffff021916908373ffffffffffffffffffffffffffffffffffffffff16021790555080600260006101000a81548173ffffffffffffffffffffffffffffffffffffffff021916908373ffffffffffffffffffffffffffffffffffffffff160217905550600260009054906101000a900473ffffffffffffffffffffffffffffffffffffffff16600360006101000a81548173ffffffffffffffffffffffffffffffffffffffff021916908373ffffffffffffffffffffffffffffffffffffffff160217905550600360009054906101000a900473ffffffffffffffffffffffffffffffffffffffff1673ffffffffffffffffffffffffffffffffffffffff166370a0823160008054906101000a900473ffffffffffffffffffffffffffffffffffffffff166040518263ffffffff1660e01b81526004016200019891906200029c565b60206040518083038186803b158015620001b157600080fd5b505afa158015620001c6573d6000803e3d6000fd5b505050506040513d601f19601f82011682018060405250810190620001ec919062000259565b6001819055505062000330565b6000815190506200020a81620002fc565b92915050565b600081519050620002218162000316565b92915050565b60006020828403121562000240576200023f620002f7565b5b60006200025084828501620001f9565b91505092915050565b600060208284031215620002725762000271620002f7565b5b6000620002828482850162000210565b91505092915050565b6200029681620002b9565b82525050565b6000602082019050620002b360008301846200028b565b92915050565b6000620002c682620002cd565b9050919050565b600073ffffffffffffffffffffffffffffffffffffffff82169050919050565b6000819050919050565b600080fd5b6200030781620002b9565b81146200031357600080fd5b50565b6200032181620002ed565b81146200032d57600080fd5b50565b61213c80620003406000396000f3fe608060405234801561001057600080fd5b50600436106100f55760003560e01c806355c79e58116100975780639d76ea58116100665780639d76ea5814610276578063a9e3ae8114610294578063d6bdbf78146102b0578063f851a440146102ce576100f5565b806355c79e58146101ed578063725cedd314610209578063796b89b91461022757806389c6687814610245576100f5565b80632a228170116100d35780632a228170146101665780632ab586aa14610182578063435c5177146101a05780634a0f981f146101bc576100f5565b8063067f9c10146100fa578063087861d71461012a57806318160ddd14610148575b600080fd5b610114600480360381019061010f91906115c4565b6102ec565b6040516101219190611a6b565b60405180910390f35b610132610383565b60405161013f9190611a86565b60405180910390f35b610150610451565b60405161015d9190611a86565b60405180910390f35b610180600480360381019061017b919061161e565b610457565b005b61018a610749565b6040516101979190611a50565b60405180910390f35b6101ba60048036038101906101b591906115c4565b610839565b005b6101d660048036038101906101d19190611517565b610b7f565b6040516101e4929190611aa1565b60405180910390f35b6102076004803603810190610202919061165e565b610ba3565b005b610211610e1f565b60405161021e9190611a86565b60405180910390f35b61022f61103b565b60405161023c9190611a86565b60405180910390f35b61025f600480360381019061025a91906115c4565b611043565b60405161026d929190611aa1565b60405180910390f35b61027e611077565b60405161028b9190611887565b60405180910390f35b6102ae60048036038101906102a99190611544565b61109d565b005b6102b86113b9565b6040516102c59190611a86565b60405180910390f35b6102d661146b565b6040516102e39190611887565b60405180910390f35b6102f461148f565b816005805490501161033b576040517f08c379a0000000000000000000000000000000000000000000000000000000008152600401610332906119f0565b60405180910390fd5b6005828154811061034f5761034e611d2b565b5b9060005260206000209060020201604051806040016040529081600082015481526020016001820154815250509050919050565b600080600460003373ffffffffffffffffffffffffffffffffffffffff1673ffffffffffffffffffffffffffffffffffffffff1681526020019081526020016000206000015411610409576040517f08c379a000000000000000000000000000000000000000000000000000000000815260040161040090611930565b60405180910390fd5b600460003373ffffffffffffffffffffffffffffffffffffffff1673ffffffffffffffffffffffffffffffffffffffff16815260200190815260200160002060000154905090565b60015481565b60008060009054906101000a900473ffffffffffffffffffffffffffffffffffffffff1673ffffffffffffffffffffffffffffffffffffffff163373ffffffffffffffffffffffffffffffffffffffff1614905060011515811515146104f2576040517f08c379a00000000000000000000000000000000000000000000000000000000081526004016104e990611990565b60405180910390fd5b6000600460008473ffffffffffffffffffffffffffffffffffffffff1673ffffffffffffffffffffffffffffffffffffffff1681526020019081526020016000206001015411610577576040517f08c379a000000000000000000000000000000000000000000000000000000000815260040161056e90611910565b60405180910390fd5b600083600460008573ffffffffffffffffffffffffffffffffffffffff1673ffffffffffffffffffffffffffffffffffffffff168152602001908152602001600020600001546105c79190611adb565b9050600360009054906101000a900473ffffffffffffffffffffffffffffffffffffffff1673ffffffffffffffffffffffffffffffffffffffff166323b872dd60008054906101000a900473ffffffffffffffffffffffffffffffffffffffff1685846040518463ffffffff1660e01b8152600401610648939291906118a2565b602060405180830381600087803b15801561066257600080fd5b505af1158015610676573d6000803e3d6000fd5b505050506040513d601f19601f8201168201806040525081019061069a9190611597565b506040518060400160405280600081526020016000815250600460008573ffffffffffffffffffffffffffffffffffffffff1673ffffffffffffffffffffffffffffffffffffffff16815260200190815260200160002060008201518160000155602082015181600101559050507f3b4f461f1c1de476310adb7faa72ec4ad930694929609b9fd140cc7d8a4e051583828660405161073b939291906118d9565b60405180910390a150505050565b6107516114a9565b6000600460003373ffffffffffffffffffffffffffffffffffffffff1673ffffffffffffffffffffffffffffffffffffffff16815260200190815260200160002060000154116107d6576040517f08c379a00000000000000000000000000000000000000000000000000000000081526004016107cd90611a30565b60405180910390fd5b600460003373ffffffffffffffffffffffffffffffffffffffff1673ffffffffffffffffffffffffffffffffffffffff16815260200190815260200160002060405180604001604052908160008201548152602001600182015481525050905090565b6000811161087c576040517f08c379a000000000000000000000000000000000000000000000000000000000815260040161087390611a10565b60405180910390fd5b6000600460003373ffffffffffffffffffffffffffffffffffffffff1673ffffffffffffffffffffffffffffffffffffffff1681526020019081526020016000206000015414610901576040517f08c379a00000000000000000000000000000000000000000000000000000000081526004016108f8906119d0565b60405180910390fd5b600360009054906101000a900473ffffffffffffffffffffffffffffffffffffffff1673ffffffffffffffffffffffffffffffffffffffff166323b872dd3360008054906101000a900473ffffffffffffffffffffffffffffffffffffffff16846040518463ffffffff1660e01b8152600401610980939291906118a2565b602060405180830381600087803b15801561099a57600080fd5b505af11580156109ae573d6000803e3d6000fd5b505050506040513d601f19601f820116820180604052508101906109d29190611597565b50604051806040016040528082815260200142815250600460003373ffffffffffffffffffffffffffffffffffffffff1673ffffffffffffffffffffffffffffffffffffffff1681526020019081526020016000206000820151816000015560208201518160010155905050600360009054906101000a900473ffffffffffffffffffffffffffffffffffffffff1673ffffffffffffffffffffffffffffffffffffffff166370a0823160008054906101000a900473ffffffffffffffffffffffffffffffffffffffff166040518263ffffffff1660e01b8152600401610ab99190611887565b60206040518083038186803b158015610ad157600080fd5b505afa158015610ae5573d6000803e3d6000fd5b505050506040513d601f19601f82011682018060405250810190610b0991906115f1565b60016000828254610b1a9190611adb565b925050819055507f929944b85e6bed7b06b776b74dcccf8e6ad6e6be7569384daec5470f4a20daad60008054906101000a900473ffffffffffffffffffffffffffffffffffffffff168242604051610b74939291906118d9565b60405180910390a150565b60046020528060005260406000206000915090508060000154908060010154905082565b60008211610be6576040517f08c379a0000000000000000000000000000000000000000000000000000000008152600401610bdd90611970565b60405180910390fd5b60008111610c29576040517f08c379a0000000000000000000000000000000000000000000000000000000008152600401610c20906119b0565b60405180910390fd5b60006005905080604051806040016040528085815260200184815250908060018154018082558091505060019003906000526020600020906002020160009091909190915060008201518160000155602082015181600101555050600080828054905011610c98576000610caa565b60018280549050610ca99190611bbc565b5b90505b6000811115610e1957818181548110610cc957610cc8611d2b565b5b90600052602060002090600202016000015482600183610ce99190611bbc565b81548110610cfa57610cf9611d2b565b5b9060005260206000209060020201600001541015610d1757610e19565b600082600183610d279190611bbc565b81548110610d3857610d37611d2b565b5b9060005260206000209060020201604051806040016040529081600082015481526020016001820154815250509050828281548110610d7a57610d79611d2b565b5b906000526020600020906002020183600184610d969190611bbc565b81548110610da757610da6611d2b565b5b9060005260206000209060020201600082015481600001556001820154816001015590505080838381548110610de057610ddf611d2b565b5b906000526020600020906002020160008201518160000155602082015181600101559050508180610e1090611c79565b92505050610cad565b50505050565b600080600460003373ffffffffffffffffffffffffffffffffffffffff1673ffffffffffffffffffffffffffffffffffffffff1681526020019081526020016000206001015411610ea5576040517f08c379a0000000000000000000000000000000000000000000000000000000008152600401610e9c90611950565b60405180910390fd5b600060056001600580549050610ebb9190611bbc565b81548110610ecc57610ecb611d2b565b5b90600052602060002090600202016001015490506000600460003373ffffffffffffffffffffffffffffffffffffffff1673ffffffffffffffffffffffffffffffffffffffff1681526020019081526020016000206001015442610f309190611bbc565b905060005b6005805490508160ff161015610fd257816201518060058360ff1681548110610f6157610f60611d2b565b5b906000526020600020906002020160000154610f7d9190611b62565b1115610fbf576005600182610f929190611bf0565b60ff1681548110610fa657610fa5611d2b565b5b9060005260206000209060020201600101549250610fd2565b8080610fca90611ca3565b915050610f35565b50600061271083600460003373ffffffffffffffffffffffffffffffffffffffff1673ffffffffffffffffffffffffffffffffffffffff168152602001908152602001600020600001546110269190611b62565b6110309190611b31565b905080935050505090565b600042905090565b6005818154811061105357600080fd5b90600052602060002090600202016000915090508060000154908060010154905082565b600260009054906101000a900473ffffffffffffffffffffffffffffffffffffffff1681565b60008060009054906101000a900473ffffffffffffffffffffffffffffffffffffffff1673ffffffffffffffffffffffffffffffffffffffff163373ffffffffffffffffffffffffffffffffffffffff161490506001151581151514611138576040517f08c379a000000000000000000000000000000000000000000000000000000000815260040161112f90611990565b60405180910390fd5b600360009054906101000a900473ffffffffffffffffffffffffffffffffffffffff1673ffffffffffffffffffffffffffffffffffffffff166323b872dd8560008054906101000a900473ffffffffffffffffffffffffffffffffffffffff16866040518463ffffffff1660e01b81526004016111b7939291906118a2565b602060405180830381600087803b1580156111d157600080fd5b505af11580156111e5573d6000803e3d6000fd5b505050506040513d601f19601f820116820180604052508101906112099190611597565b50604051806040016040528084815260200183815250600460008673ffffffffffffffffffffffffffffffffffffffff1673ffffffffffffffffffffffffffffffffffffffff1681526020019081526020016000206000820151816000015560208201518160010155905050600360009054906101000a900473ffffffffffffffffffffffffffffffffffffffff1673ffffffffffffffffffffffffffffffffffffffff166370a0823160008054906101000a900473ffffffffffffffffffffffffffffffffffffffff166040518263ffffffff1660e01b81526004016112f09190611887565b60206040518083038186803b15801561130857600080fd5b505afa15801561131c573d6000803e3d6000fd5b505050506040513d601f19601f8201168201806040525081019061134091906115f1565b600160008282546113519190611adb565b925050819055507f929944b85e6bed7b06b776b74dcccf8e6ad6e6be7569384daec5470f4a20daad60008054906101000a900473ffffffffffffffffffffffffffffffffffffffff1684426040516113ab939291906118d9565b60405180910390a150505050565b6000600360009054906101000a900473ffffffffffffffffffffffffffffffffffffffff1673ffffffffffffffffffffffffffffffffffffffff166370a08231336040518263ffffffff1660e01b81526004016114169190611887565b60206040518083038186803b15801561142e57600080fd5b505afa158015611442573d6000803e3d6000fd5b505050506040513d601f19601f8201168201806040525081019061146691906115f1565b905090565b60008054906101000a900473ffffffffffffffffffffffffffffffffffffffff1681565b604051806040016040528060008152602001600081525090565b604051806040016040528060008152602001600081525090565b6000813590506114d2816120c1565b92915050565b6000815190506114e7816120d8565b92915050565b6000813590506114fc816120ef565b92915050565b600081519050611511816120ef565b92915050565b60006020828403121561152d5761152c611d5a565b5b600061153b848285016114c3565b91505092915050565b60008060006060848603121561155d5761155c611d5a565b5b600061156b868287016114c3565b935050602061157c868287016114ed565b925050604061158d868287016114ed565b9150509250925092565b6000602082840312156115ad576115ac611d5a565b5b60006115bb848285016114d8565b91505092915050565b6000602082840312156115da576115d9611d5a565b5b60006115e8848285016114ed565b91505092915050565b60006020828403121561160757611606611d5a565b5b600061161584828501611502565b91505092915050565b6000806040838503121561163557611634611d5a565b5b6000611643858286016114ed565b9250506020611654858286016114c3565b9150509250929050565b6000806040838503121561167557611674611d5a565b5b6000611683858286016114ed565b9250506020611694858286016114ed565b9150509250929050565b6116a781611c24565b82525050565b60006116ba602f83611aca565b91506116c582611d5f565b604082019050919050565b60006116dd603483611aca565b91506116e882611dae565b604082019050919050565b6000611700603083611aca565b915061170b82611dfd565b604082019050919050565b6000611723603983611aca565b915061172e82611e4c565b604082019050919050565b6000611746601283611aca565b915061175182611e9b565b602082019050919050565b6000611769603883611aca565b915061177482611ec4565b604082019050919050565b600061178c605783611aca565b915061179782611f13565b606082019050919050565b60006117af604183611aca565b91506117ba82611f88565b606082019050919050565b60006117d2604783611aca565b91506117dd82611ffd565b606082019050919050565b60006117f5603483611aca565b915061180082612072565b604082019050919050565b6040820160008201516118216000850182611869565b5060208201516118346020850182611869565b50505050565b6040820160008201516118506000850182611869565b5060208201516118636020850182611869565b50505050565b61187281611c62565b82525050565b61188181611c62565b82525050565b600060208201905061189c600083018461169e565b92915050565b60006060820190506118b7600083018661169e565b6118c4602083018561169e565b6118d16040830184611878565b949350505050565b60006060820190506118ee600083018661169e565b6118fb6020830185611878565b6119086040830184611878565b949350505050565b60006020820190508181036000830152611929816116ad565b9050919050565b60006020820190508181036000830152611949816116d0565b9050919050565b60006020820190508181036000830152611969816116f3565b9050919050565b6000602082019050818103600083015261198981611716565b9050919050565b600060208201905081810360008301526119a981611739565b9050919050565b600060208201905081810360008301526119c98161175c565b9050919050565b600060208201905081810360008301526119e98161177f565b9050919050565b60006020820190508181036000830152611a09816117a2565b9050919050565b60006020820190508181036000830152611a29816117c5565b9050919050565b60006020820190508181036000830152611a49816117e8565b9050919050565b6000604082019050611a65600083018461180b565b92915050565b6000604082019050611a80600083018461183a565b92915050565b6000602082019050611a9b6000830184611878565b92915050565b6000604082019050611ab66000830185611878565b611ac36020830184611878565b9392505050565b600082825260208201905092915050565b6000611ae682611c62565b9150611af183611c62565b9250827fffffffffffffffffffffffffffffffffffffffffffffffffffffffffffffffff03821115611b2657611b25611ccd565b5b828201905092915050565b6000611b3c82611c62565b9150611b4783611c62565b925082611b5757611b56611cfc565b5b828204905092915050565b6000611b6d82611c62565b9150611b7883611c62565b9250817fffffffffffffffffffffffffffffffffffffffffffffffffffffffffffffffff0483118215151615611bb157611bb0611ccd565b5b828202905092915050565b6000611bc782611c62565b9150611bd283611c62565b925082821015611be557611be4611ccd565b5b828203905092915050565b6000611bfb82611c6c565b9150611c0683611c6c565b925082821015611c1957611c18611ccd565b5b828203905092915050565b6000611c2f82611c42565b9050919050565b60008115159050919050565b600073ffffffffffffffffffffffffffffffffffffffff82169050919050565b6000819050919050565b600060ff82169050919050565b6000611c8482611c62565b91506000821415611c9857611c97611ccd565b5b600182039050919050565b6000611cae82611c6c565b915060ff821415611cc257611cc1611ccd565b5b600182019050919050565b7f4e487b7100000000000000000000000000000000000000000000000000000000600052601160045260246000fd5b7f4e487b7100000000000000000000000000000000000000000000000000000000600052601260045260246000fd5b7f4e487b7100000000000000000000000000000000000000000000000000000000600052603260045260246000fd5b600080fd5b7f726577617264735374616b696e673a2054686973207573657220686173206e6f60008201527f74207374616b6564206974656d732e0000000000000000000000000000000000602082015250565b7f7374616b696e6742616c616e63654f663a20546869732061646472657373206860008201527f6173206e6f20746f6b656e73207374616b656421000000000000000000000000602082015250565b7f63616c63756c6174655265776172643a2054686973207573657220686173206e60008201527f6f74207374616b6564206974656d732e00000000000000000000000000000000602082015250565b7f6164645374616b696e67526577617264733a207374616b696e6764617973206e60008201527f6565647320746f20626520686967686572207468656e20302e00000000000000602082015250565b7f4f6e6c792061646d696e20616c6c6f7765640000000000000000000000000000600082015250565b7f6164645374616b696e67526577617264733a2070657263656e74616765206e6560008201527f65647320746f20626520686967686572207468656e20302e0000000000000000602082015250565b7f6372656174655374616b696e673a2054686973206163636f756e74206861732060008201527f616c7265616479207374616b65642c20706c656173652067657420796f75722060208201527f7265776172647320746f207374616b6520616761696e21000000000000000000604082015250565b7f6765745374616b696e67526577617264733a206964206973206f75747369646560008201527f206f662061727261792e20506c65617365207472792061206c6f77657220696460208201527f2e00000000000000000000000000000000000000000000000000000000000000604082015250565b7f6372656174655374616b696e673a2054686520616d6f756e7420796f7520776160008201527f6e7420746f207374616b652068617320746f206265206269676765722074686160208201527f6e207a65726f2100000000000000000000000000000000000000000000000000604082015250565b7f6765745374616b696e674279557365723a20546869732061646472657373206860008201527f6173206e6f20746f6b656e73207374616b656421000000000000000000000000602082015250565b6120ca81611c24565b81146120d557600080fd5b50565b6120e181611c36565b81146120ec57600080fd5b50565b6120f881611c62565b811461210357600080fd5b5056fea2646970667358221220cb5d7d518ed3b49402da2cffe1dd520916b7265d892ddbd1bdb084b85b66d9e264736f6c63430008060033",
  "linkReferences": {},
  "deployedLinkReferences": {}
}