{
  "_format": "hh-sol-artifact-1",
  "contractName": "MyToken",
  "sourceName": "contracts/MyToken.sol",
  "abi": [
    {
      "inputs": [],
      "stateMutability": "nonpayable",
      "type": "constructor"
    },
    {
      "anonymous": false,
      "inputs": [
        {
          "indexed": true,
          "internalType": "address",
          "name": "owner",
          "type": "address"
        },
        {
          "indexed": true,
          "internalType": "address",
          "name": "spender",
          "type": "address"
        },
        {
          "indexed": false,
          "internalType": "uint256",
          "name": "value",
          "type": "uint256"
        }
      ],
      "name": "Approval",
      "type": "event"
    },
    {
      "anonymous": false,
      "inputs": [
        {
          "indexed": true,
          "internalType": "address",
          "name": "from",
          "type": "address"
        },
        {
          "indexed": true,
          "internalType": "address",
          "name": "to",
          "type": "address"
        },
        {
          "indexed": false,
          "internalType": "uint256",
          "name": "value",
          "type": "uint256"
        }
      ],
      "name": "Transfer",
      "type": "event"
    },
    {
      "inputs": [],
      "name": "_artist",
      "outputs": [
        {
          "internalType": "address",
          "name": "",
          "type": "address"
        }
      ],
      "stateMutability": "view",
      "type": "function"
    },
    {
      "inputs": [],
      "name": "_percentage",
      "outputs": [
        {
          "internalType": "uint256",
          "name": "",
          "type": "uint256"
        }
      ],
      "stateMutability": "view",
      "type": "function"
    },
    {
      "inputs": [
        {
          "internalType": "address",
          "name": "artist",
          "type": "address"
        },
        {
          "internalType": "uint256",
          "name": "percentage",
          "type": "uint256"
        }
      ],
      "name": "addRoyaltiesAccount",
      "outputs": [
        {
          "internalType": "bool",
          "name": "",
          "type": "bool"
        }
      ],
      "stateMutability": "nonpayable",
      "type": "function"
    },
    {
      "inputs": [],
      "name": "admin",
      "outputs": [
        {
          "internalType": "address",
          "name": "",
          "type": "address"
        }
      ],
      "stateMutability": "view",
      "type": "function"
    },
    {
      "inputs": [
        {
          "internalType": "address",
          "name": "",
          "type": "address"
        },
        {
          "internalType": "address",
          "name": "",
          "type": "address"
        }
      ],
      "name": "allowance",
      "outputs": [
        {
          "internalType": "uint256",
          "name": "",
          "type": "uint256"
        }
      ],
      "stateMutability": "view",
      "type": "function"
    },
    {
      "inputs": [
        {
          "internalType": "address",
          "name": "spender",
          "type": "address"
        },
        {
          "internalType": "uint256",
          "name": "value",
          "type": "uint256"
        }
      ],
      "name": "approve",
      "outputs": [
        {
          "internalType": "bool",
          "name": "",
          "type": "bool"
        }
      ],
      "stateMutability": "nonpayable",
      "type": "function"
    },
    {
      "inputs": [
        {
          "internalType": "address",
          "name": "owner",
          "type": "address"
        }
      ],
      "name": "balanceOf",
      "outputs": [
        {
          "internalType": "uint256",
          "name": "",
          "type": "uint256"
        }
      ],
      "stateMutability": "view",
      "type": "function"
    },
    {
      "inputs": [
        {
          "internalType": "address",
          "name": "",
          "type": "address"
        }
      ],
      "name": "balances",
      "outputs": [
        {
          "internalType": "uint256",
          "name": "",
          "type": "uint256"
        }
      ],
      "stateMutability": "view",
      "type": "function"
    },
    {
      "inputs": [],
      "name": "decimals",
      "outputs": [
        {
          "internalType": "uint8",
          "name": "",
          "type": "uint8"
        }
      ],
      "stateMutability": "view",
      "type": "function"
    },
    {
      "inputs": [],
      "name": "getAdmin",
      "outputs": [
        {
          "internalType": "address",
          "name": "",
          "type": "address"
        }
      ],
      "stateMutability": "view",
      "type": "function"
    },
    {
      "inputs": [],
      "name": "getArtist",
      "outputs": [
        {
          "internalType": "address",
          "name": "",
          "type": "address"
        }
      ],
      "stateMutability": "view",
      "type": "function"
    },
    {
      "inputs": [],
      "name": "getPercentage",
      "outputs": [
        {
          "internalType": "uint256",
          "name": "",
          "type": "uint256"
        }
      ],
      "stateMutability": "view",
      "type": "function"
    },
    {
      "inputs": [
        {
          "internalType": "uint256",
          "name": "value",
          "type": "uint256"
        }
      ],
      "name": "mint",
      "outputs": [
        {
          "internalType": "bool",
          "name": "",
          "type": "bool"
        }
      ],
      "stateMutability": "nonpayable",
      "type": "function"
    },
    {
      "inputs": [],
      "name": "name",
      "outputs": [
        {
          "internalType": "string",
          "name": "",
          "type": "string"
        }
      ],
      "stateMutability": "view",
      "type": "function"
    },
    {
      "inputs": [],
      "name": "symbol",
      "outputs": [
        {
          "internalType": "string",
          "name": "",
          "type": "string"
        }
      ],
      "stateMutability": "view",
      "type": "function"
    },
    {
      "inputs": [],
      "name": "totalSupply",
      "outputs": [
        {
          "internalType": "uint256",
          "name": "",
          "type": "uint256"
        }
      ],
      "stateMutability": "view",
      "type": "function"
    },
    {
      "inputs": [
        {
          "internalType": "address",
          "name": "to",
          "type": "address"
        },
        {
          "internalType": "uint256",
          "name": "value",
          "type": "uint256"
        }
      ],
      "name": "transfer",
      "outputs": [
        {
          "internalType": "bool",
          "name": "",
          "type": "bool"
        }
      ],
      "stateMutability": "nonpayable",
      "type": "function"
    },
    {
      "inputs": [
        {
          "internalType": "address",
          "name": "from",
          "type": "address"
        },
        {
          "internalType": "address",
          "name": "to",
          "type": "address"
        },
        {
          "internalType": "uint256",
          "name": "value",
          "type": "uint256"
        }
      ],
      "name": "transferFrom",
      "outputs": [
        {
          "internalType": "bool",
          "name": "",
          "type": "bool"
        }
      ],
      "stateMutability": "nonpayable",
      "type": "function"
    },
    {
      "inputs": [
        {
          "internalType": "address",
          "name": "to",
          "type": "address"
        },
        {
          "internalType": "uint256",
          "name": "value",
          "type": "uint256"
        }
      ],
      "name": "transferWithRoyalies",
      "outputs": [
        {
          "internalType": "bool",
          "name": "",
          "type": "bool"
        }
      ],
      "stateMutability": "nonpayable",
      "type": "function"
    }
  ],
  "bytecode": "0x608060405269021e19e0c9bab24000006002556040518060400160405280600781526020017f4d79546f6b656e00000000000000000000000000000000000000000000000000815250600390805190602001906200005f92919062000164565b506040518060400160405280600381526020017f4d544e000000000000000000000000000000000000000000000000000000000081525060049080519060200190620000ad92919062000164565b506012600560006101000a81548160ff021916908360ff160217905550348015620000d757600080fd5b5033600560016101000a81548173ffffffffffffffffffffffffffffffffffffffff021916908373ffffffffffffffffffffffffffffffffffffffff1602179055506002546000803373ffffffffffffffffffffffffffffffffffffffff1673ffffffffffffffffffffffffffffffffffffffff1681526020019081526020016000208190555062000279565b828054620001729062000214565b90600052602060002090601f016020900481019282620001965760008555620001e2565b82601f10620001b157805160ff1916838001178555620001e2565b82800160010185558215620001e2579182015b82811115620001e1578251825591602001919060010190620001c4565b5b509050620001f19190620001f5565b5090565b5b8082111562000210576000816000905550600101620001f6565b5090565b600060028204905060018216806200022d57607f821691505b602082108114156200024457620002436200024a565b5b50919050565b7f4e487b7100000000000000000000000000000000000000000000000000000000600052602260045260246000fd5b61173180620002896000396000f3fe608060405234801561001057600080fd5b50600436106101215760003560e01c80636e9960c3116100ad578063a9059cbb11610071578063a9059cbb14610336578063aed590ff14610366578063dd62ed3e14610396578063e094826b146103c6578063f851a440146103e457610121565b80636e9960c31461027c57806370a082311461029a5780637d40bffb146102ca57806395d89b41146102e8578063a0712d681461030657610121565b806323b872dd116100f457806323b872dd146101b057806327e235e3146101e0578063313ce567146102105780634046f91a1461022e5780634ea7c7621461024c57610121565b806306fdde0314610126578063095ea7b3146101445780630b2accb21461017457806318160ddd14610192575b600080fd5b61012e610402565b60405161013b91906112e6565b60405180910390f35b61015e60048036038101906101599190611165565b610490565b60405161016b91906112cb565b60405180910390f35b61017c6105bb565b6040516101899190611368565b60405180910390f35b61019a6105c5565b6040516101a79190611368565b60405180910390f35b6101ca60048036038101906101c59190611112565b6105cb565b6040516101d791906112cb565b60405180910390f35b6101fa60048036038101906101f591906110a5565b6107f1565b6040516102079190611368565b60405180910390f35b610218610809565b6040516102259190611383565b60405180910390f35b61023661081c565b60405161024391906112b0565b60405180910390f35b61026660048036038101906102619190611165565b610842565b60405161027391906112cb565b60405180910390f35b610284610a7f565b60405161029191906112b0565b60405180910390f35b6102b460048036038101906102af91906110a5565b610aa9565b6040516102c19190611368565b60405180910390f35b6102d2610af1565b6040516102df9190611368565b60405180910390f35b6102f0610af7565b6040516102fd91906112e6565b60405180910390f35b610320600480360381019061031b91906111a5565b610b85565b60405161032d91906112cb565b60405180910390f35b610350600480360381019061034b9190611165565b610d86565b60405161035d91906112cb565b60405180910390f35b610380600480360381019061037b9190611165565b610f22565b60405161038d91906112cb565b60405180910390f35b6103b060048036038101906103ab91906110d2565b611006565b6040516103bd9190611368565b60405180910390f35b6103ce61102b565b6040516103db91906112b0565b60405180910390f35b6103ec611055565b6040516103f991906112b0565b60405180910390f35b6003805461040f90611557565b80601f016020809104026020016040519081016040528092919081815260200182805461043b90611557565b80156104885780601f1061045d57610100808354040283529160200191610488565b820191906000526020600020905b81548152906001019060200180831161046b57829003601f168201915b505050505081565b60003373ffffffffffffffffffffffffffffffffffffffff168373ffffffffffffffffffffffffffffffffffffffff1614156104cb57600080fd5b81600160003373ffffffffffffffffffffffffffffffffffffffff1673ffffffffffffffffffffffffffffffffffffffff16815260200190815260200160002060008573ffffffffffffffffffffffffffffffffffffffff1673ffffffffffffffffffffffffffffffffffffffff168152602001908152602001600020819055508273ffffffffffffffffffffffffffffffffffffffff163373ffffffffffffffffffffffffffffffffffffffff167f8c5be1e5ebec7d5bd14f71427d1e84f3dd0314c0f7b2291e5b200ac8c7c3b925846040516105a99190611368565b60405180910390a36001905092915050565b6000600754905090565b60025481565b6000816105d785610aa9565b1015610618576040517f08c379a000000000000000000000000000000000000000000000000000000000815260040161060f90611308565b60405180910390fd5b81600160008673ffffffffffffffffffffffffffffffffffffffff1673ffffffffffffffffffffffffffffffffffffffff16815260200190815260200160002060003373ffffffffffffffffffffffffffffffffffffffff1673ffffffffffffffffffffffffffffffffffffffff1681526020019081526020016000205410156106d7576040517f08c379a00000000000000000000000000000000000000000000000000000000081526004016106ce90611328565b60405180910390fd5b816000808673ffffffffffffffffffffffffffffffffffffffff1673ffffffffffffffffffffffffffffffffffffffff1681526020019081526020016000206000828254610725919061149b565b92505081905550816000808573ffffffffffffffffffffffffffffffffffffffff1673ffffffffffffffffffffffffffffffffffffffff168152602001908152602001600020600082825461077a91906113ba565b925050819055508273ffffffffffffffffffffffffffffffffffffffff168473ffffffffffffffffffffffffffffffffffffffff167fddf252ad1be2c89b69c2b068fc378daa952ba7f163c4a11628f55a4df523b3ef846040516107de9190611368565b60405180910390a3600190509392505050565b60006020528060005260406000206000915090505481565b600560009054906101000a900460ff1681565b600660009054906101000a900473ffffffffffffffffffffffffffffffffffffffff1681565b6000816000803373ffffffffffffffffffffffffffffffffffffffff1673ffffffffffffffffffffffffffffffffffffffff1681526020019081526020016000205410156108c5576040517f08c379a00000000000000000000000000000000000000000000000000000000081526004016108bc90611308565b60405180910390fd5b816000803373ffffffffffffffffffffffffffffffffffffffff1673ffffffffffffffffffffffffffffffffffffffff1681526020019081526020016000206000828254610913919061149b565b92505081905550600060075460648461092c9190611410565b6109369190611441565b905080600080600660009054906101000a900473ffffffffffffffffffffffffffffffffffffffff1673ffffffffffffffffffffffffffffffffffffffff1673ffffffffffffffffffffffffffffffffffffffff16815260200190815260200160002060008282546109a891906113ba565b9250508190555080836109bb919061149b565b6000808673ffffffffffffffffffffffffffffffffffffffff1673ffffffffffffffffffffffffffffffffffffffff1681526020019081526020016000206000828254610a0891906113ba565b925050819055508373ffffffffffffffffffffffffffffffffffffffff163373ffffffffffffffffffffffffffffffffffffffff167fddf252ad1be2c89b69c2b068fc378daa952ba7f163c4a11628f55a4df523b3ef85604051610a6c9190611368565b60405180910390a3600191505092915050565b6000600560019054906101000a900473ffffffffffffffffffffffffffffffffffffffff16905090565b60008060008373ffffffffffffffffffffffffffffffffffffffff1673ffffffffffffffffffffffffffffffffffffffff168152602001908152602001600020549050919050565b60075481565b60048054610b0490611557565b80601f0160208091040260200160405190810160405280929190818152602001828054610b3090611557565b8015610b7d5780601f10610b5257610100808354040283529160200191610b7d565b820191906000526020600020905b815481529060010190602001808311610b6057829003601f168201915b505050505081565b600081600080600560019054906101000a900473ffffffffffffffffffffffffffffffffffffffff1673ffffffffffffffffffffffffffffffffffffffff1673ffffffffffffffffffffffffffffffffffffffff168152602001908152602001600020541015610c2a576040517f08c379a0000000000000000000000000000000000000000000000000000000008152600401610c2190611308565b60405180910390fd5b81600080600560019054906101000a900473ffffffffffffffffffffffffffffffffffffffff1673ffffffffffffffffffffffffffffffffffffffff1673ffffffffffffffffffffffffffffffffffffffff1681526020019081526020016000206000828254610c9a919061149b565b92505081905550816000803373ffffffffffffffffffffffffffffffffffffffff1673ffffffffffffffffffffffffffffffffffffffff1681526020019081526020016000206000828254610cef91906113ba565b925050819055503373ffffffffffffffffffffffffffffffffffffffff16600560019054906101000a900473ffffffffffffffffffffffffffffffffffffffff1673ffffffffffffffffffffffffffffffffffffffff167fddf252ad1be2c89b69c2b068fc378daa952ba7f163c4a11628f55a4df523b3ef84604051610d759190611368565b60405180910390a360019050919050565b6000816000803373ffffffffffffffffffffffffffffffffffffffff1673ffffffffffffffffffffffffffffffffffffffff168152602001908152602001600020541015610e09576040517f08c379a0000000000000000000000000000000000000000000000000000000008152600401610e0090611308565b60405180910390fd5b816000803373ffffffffffffffffffffffffffffffffffffffff1673ffffffffffffffffffffffffffffffffffffffff1681526020019081526020016000206000828254610e57919061149b565b92505081905550816000808573ffffffffffffffffffffffffffffffffffffffff1673ffffffffffffffffffffffffffffffffffffffff1681526020019081526020016000206000828254610eac91906113ba565b925050819055508273ffffffffffffffffffffffffffffffffffffffff163373ffffffffffffffffffffffffffffffffffffffff167fddf252ad1be2c89b69c2b068fc378daa952ba7f163c4a11628f55a4df523b3ef84604051610f109190611368565b60405180910390a36001905092915050565b60003373ffffffffffffffffffffffffffffffffffffffff16600560019054906101000a900473ffffffffffffffffffffffffffffffffffffffff1673ffffffffffffffffffffffffffffffffffffffff1614610fb4576040517f08c379a0000000000000000000000000000000000000000000000000000000008152600401610fab90611348565b60405180910390fd5b82600660006101000a81548173ffffffffffffffffffffffffffffffffffffffff021916908373ffffffffffffffffffffffffffffffffffffffff160217905550816007819055506001905092915050565b6001602052816000526040600020602052806000526040600020600091509150505481565b6000600660009054906101000a900473ffffffffffffffffffffffffffffffffffffffff16905090565b600560019054906101000a900473ffffffffffffffffffffffffffffffffffffffff1681565b60008135905061108a816116cd565b92915050565b60008135905061109f816116e4565b92915050565b6000602082840312156110bb576110ba611616565b5b60006110c98482850161107b565b91505092915050565b600080604083850312156110e9576110e8611616565b5b60006110f78582860161107b565b92505060206111088582860161107b565b9150509250929050565b60008060006060848603121561112b5761112a611616565b5b60006111398682870161107b565b935050602061114a8682870161107b565b925050604061115b86828701611090565b9150509250925092565b6000806040838503121561117c5761117b611616565b5b600061118a8582860161107b565b925050602061119b85828601611090565b9150509250929050565b6000602082840312156111bb576111ba611616565b5b60006111c984828501611090565b91505092915050565b6111db816114cf565b82525050565b6111ea816114e1565b82525050565b60006111fb8261139e565b61120581856113a9565b9350611215818560208601611524565b61121e8161161b565b840191505092915050565b6000611236600f836113a9565b91506112418261162c565b602082019050919050565b60006112596011836113a9565b915061126482611655565b602082019050919050565b600061127c6024836113a9565b91506112878261167e565b604082019050919050565b61129b8161150d565b82525050565b6112aa81611517565b82525050565b60006020820190506112c560008301846111d2565b92915050565b60006020820190506112e060008301846111e1565b92915050565b6000602082019050818103600083015261130081846111f0565b905092915050565b6000602082019050818103600083015261132181611229565b9050919050565b600060208201905081810360008301526113418161124c565b9050919050565b600060208201905081810360008301526113618161126f565b9050919050565b600060208201905061137d6000830184611292565b92915050565b600060208201905061139860008301846112a1565b92915050565b600081519050919050565b600082825260208201905092915050565b60006113c58261150d565b91506113d08361150d565b9250827fffffffffffffffffffffffffffffffffffffffffffffffffffffffffffffffff0382111561140557611404611589565b5b828201905092915050565b600061141b8261150d565b91506114268361150d565b925082611436576114356115b8565b5b828204905092915050565b600061144c8261150d565b91506114578361150d565b9250817fffffffffffffffffffffffffffffffffffffffffffffffffffffffffffffffff04831182151516156114905761148f611589565b5b828202905092915050565b60006114a68261150d565b91506114b18361150d565b9250828210156114c4576114c3611589565b5b828203905092915050565b60006114da826114ed565b9050919050565b60008115159050919050565b600073ffffffffffffffffffffffffffffffffffffffff82169050919050565b6000819050919050565b600060ff82169050919050565b60005b83811015611542578082015181840152602081019050611527565b83811115611551576000848401525b50505050565b6000600282049050600182168061156f57607f821691505b60208210811415611583576115826115e7565b5b50919050565b7f4e487b7100000000000000000000000000000000000000000000000000000000600052601160045260246000fd5b7f4e487b7100000000000000000000000000000000000000000000000000000000600052601260045260246000fd5b7f4e487b7100000000000000000000000000000000000000000000000000000000600052602260045260246000fd5b600080fd5b6000601f19601f8301169050919050565b7f62616c616e636520746f6f206c6f770000000000000000000000000000000000600082015250565b7f616c6c6f77616e636520746f6f206c6f77000000000000000000000000000000600082015250565b7f4f6e6c7920746865206f776e65722063616e2075736520746869732066756e6360008201527f74696f6e00000000000000000000000000000000000000000000000000000000602082015250565b6116d6816114cf565b81146116e157600080fd5b50565b6116ed8161150d565b81146116f857600080fd5b5056fea264697066735822122022f41a6335ea80f8b78d63d7f81e1ac7a5e1243514aae2fbfa42e9a580f3d23464736f6c63430008060033",
  "linkReferences": {},
  "deployedLinkReferences": {}
}